:100BC100010A0006110001000D0100060B060700D5
:030BD1001002000F
:100B0D0012043FFFF87401088002C333D8FCF4527D
:100B1D00A0900001120458FFF87401088002C3333D
:100B2D00D8FCF452A09000047403120485900002C6
:070B3D00E475F0030205441A
:060AD1007B007A007911A0
:100AD70012043FFFF87401088002C333D8FCF452B4
:100AE700A0900001120458FFF87401088002C33374
:100AF700D8FC42A09000047401120485900002E41F
:060B070075F00D0205442B
:100B440012043FFFF87401088002C333D8FC42A0AA
:100B5400900001120458FFF87401088002C333D8CE
:100B6400FCF452A09000047402120485900002E484
:060B740075F010020544BB
:100B7A00900004120458B40214900001120458FFA1
:100B8A00F87401088002C333D8FC62A02212043F21
:0E0B9A00FFF87401088002C333D8FC62A02269
:0A0C5200120AD17A00790B020B445C
:10000E00E4F52375240F75250FF526120BD8120C67
:10001E0084120C52E51660067D9A7C028004AD14A3
:10002E00AC137F0112081FE51060067D9A7C0280DA
:10003E0004AD0EAC0D7F0212081FE515B4010ED3F0
:10004E00E5149403E51394005003120C5CE50FB411
:10005E00010ED3E50E9403E50D94005003120C5CD3
:10006E00120A708F23E523B4011674032514F514B8
:10007E00E43513F5137403250EF50EE4350DF50D69
:10008E00E5236402600302019AE51564037003021E
:10009E00019A750A01E4F513F5147D9A7C027F022C
:1000AE0012081FE4F526E526C39403400302015D02
:1000BE00AD14AC137F0112081F1202B58F24E52474
:1000CE00C3940F50EBE526C394025034E524940AF2
:1000DE00502EAE13AF147C007D0A1204A78E138F20
:1000EE0014E52475F00A84E5F02514F514E43513AF
:1000FE00F513FEAF147D641204B98C138D1405260E
:10010E00E524B40B160514E51470020513AE13FFA7
:10011E007C007D641204B98C138D14E524B40C1785
:10012E00E514151470021513AE13AF147C007D6424
:10013E001204B98C138D14E524640E6012E524B4F8
:10014E000D07E4F513F514F52675240F0200B4E53A
:10015E0015B40110750F02E5142403F50EE43513E2
:10016E00F50D8025D3E5149403E5139400500B751B
:10017E000F0385130D85140E800F750F01E51424E2
:10018E00FDF50EE51334FFF50DE4F50A120C24EF20
:10019E007003020022120006EF6446600302002282
:1001AE00750A01F513F5147D9A7C027F0212081F61
:1001BE00E4F526E526C394034003020275AD14ACA4
:1001CE00137F0112081F1208E48F25E525C3940F33
:1001DE0050EBE526C39402502FE525C3940A502810
:1001EE00AE13AF147C007D0A1204A78E138F14E594
:1001FE00252514F514E43513F513FEAF147D6412A2
:10020E0004B98C138D140526E525B40B160514E5DB
:10021E001470020513AE13FF7C007D641204B98CBA
:10022E00138D14E525B40C17E5141514700215136F
:10023E00AE13AF147C007D641204B98C138D14E5DB
:10024E0025B40E11AE13AF147C007D641204B98C6C
:10025E00138D148012E525B40D07E4F513F514F58E
:10026E002675250F0201C1E515B40110750F02E5C3
:10027E00142403F50EE43513F50D8025D3E51494FF
:10028E0003E5139400500B750F0385130D85140EA3
:10029E00800F750F01E51424FDF50EE51334FFF5FF
:0702AE000DE4F50A02002235
:03000B000206E109
:1006E100C0E0C0F0C083C082C0D075D000C000C0DF
:0706F10001C002C003C007B5
:1006F800758A33758CFE752B01E50A60097508004B
:1007080075090002080A0509E5097002050864E888
:100718007004E5086403600CE50964D07004E5081A
:100728006407705CD3E5149403E51394005023E543
:10073800156403601DE51670047F0180027F008F39
:1007480016E51445137002F5167B007A007911122C
:100758000B7AD3E50E9403E50D94005023E50F645E
:1007680003601DE51070047F0180027F008F10E593
:100778000E450D7002F5107B007A00790B120B7A8A
:10078800E50964D07004E50864077076F508F50992
:10079800E514151470021513E50E150E7002150DEB
:1007A800E51445137028E515B4010B7B007A007930
:1007B80011120B0D8018E515B4030B7B007A007934
:1007C80011120B448008E515B40203120AD1E50E94
:1007D800450D702EE50FB4010B7B007A00790B12E2
:1007E8000B0D801EE50FB4030B7B007A00790B120A
:1007F8000B44800EE50FB402097B007A00790B12D6
:020808000AD70D
:10080A00D007D003D002D001D000D0D0D082D0837C
:05081A00D0F0D0E03237
:040BA800EF4E601498
:100BAC0000752902752AC7D52AFDD529FAEF1F70C1
:020BBC00EB1E2E
:030BBE0080E822AA
:0B0C31003F065B4F666D7D077F6F0084
:1009FC00EF14B408005054900A1175F003A4C58389
:100A0C0025F0C58373020A29020A2D020A31020A53
:100A1C0035020A39020A41020A49020A51D2A4805B
:100A2C000ED2A48012D2A48016D2A4801AC2A4D250
:100A3C00A3D2A28016C2A4D2A3C2A2800EC2A4C208
:100A4C00A3D2A28006C2A4C2A3C2A274312DF58285
:100A5C00740C3CF583E493F5807F017E00120BA8A7
:040A6C00E4F580220B
:10081F008C278D28EF64017050E528B49A07E527DF
:10082F00B40202804EAE27AF287C007D6412050E05
:10083F00AC06AD077F011209FCAE27AF287C007D07
:10084F006412050E8C278D28AE27AF287C007D0AF9
:10085F0012050EAC06AD077F021209FCAE27AF28BA
:10086F007C007D0A12050E8020E528B49A1FE5272B
:10087F00B4021A7D0A7C007F011209FC7D0A7C00FC
:10088F007F021209FC7D0A7C007F038044AE27AFF4
:10089F00287C007D6412050EAC06AD077F0512099A
:1008AF00FCAE27AF287C007D6412050E8C278D28A7
:1008BF00AE27AF287C007D0A12050EAC06AD077F70
:1008CF00061209FCAE27AF287C007D0A12050E7FA9
:0508DF00071209FC22D4
:100BD8005389F0438901758A33758CFEC28DD28C96
:050BE800D2A9D2AF22EA
:100BED0053890F438910E4F58BF58DC28FC28ED2D8
:040BFD00ABD2AF22A6
:0B0C3C00AD07AC068C8DAF058F8B223E
:090C6600AF8DEFFEAD8BEDFF2216
:060C7800EF24FF928E2222
:100C1400E4F5C8F5CCF5CDF5CAF5CBC2CAC2CF22EE
:100C0100AD07AC06AF048FCDAB05AE038ECC8FCB59
:030C11008ECA2266
:090C6F00AFCDEFFEADCCEDFF228C
:060C7E00EF24FF92CA22E0
:100A7000E4F52720B1137F14FE120BA830B1FD7FDF
:100A8000147E00120BA875270120B0147F147E007D
:100A9000120BA830B0FD7F147E00120BA875270240
:100AA00020B2147F147E00120BA830B2FD7F147E9A
:100AB00000120BA875270320B3147F147E00120BBD
:100AC000A830B3FD7F147E00120BA8752704AF2752
:010AD0002203
:030BD400012B00F2
:0A0C5C00E52B6005B2A5E4F52B229C
:1002B50075270F7590FFC2932097147F147E001247
:1002C5000BA83097FD7F147E00120BA8752701201F
:1002D50096147F147E00120BA83096FD7F147E00C5
:1002E500120BA87527052095147F147E00120BA804
:1002F5003095FD7F147E00120BA8752709209414F4
:100305007F147E00120BA83094FD7F147E00120B23
:10031500A875270D7590FFC2922097147F147E0053
:10032500120BA83097FD7F147E00120BA8752702CB
:100335002096147F147E00120BA83096FD7F147E44
:1003450000120BA87527062095147F147E00120B4A
:10035500A83095FD7F147E00120BA875270A2094FE
:10036500147F147E00120BA83094FD7F147E0012BA
:100375000BA875270E7590FFC2912097147F147EE8
:1003850000120BA83097FD7F147E00120BA875276D
:10039500032096147F147E00120BA83096FD7F145F
:1003A5007E00120BA87527072095147F147E001276
:1003B5000BA83095FD7F147E00120BA875270B2026
:1003C50094147F147E00120BA83094FD7F147E00D8
:1003D500120BA875270F7590FFC2902097147F14F4
:1003E5007E00120BA83097FD7F147E00120BA875B6
:1003F50027042096147F147E00120BA83096FD7FEB
:10040500147E00120BA87527082095147F147E0012
:10041500120BA83095FD7F147E00120BA875270CD2
:100425002094147F147E00120BA83094FD7F147E57
:0904350000120BA8752710AF2777
:01043E00229B
:0B0C4700D288C289D2A8D2AFD2B82256
:060C8400120BED020C470B
:0D0C2400E51E6006E4F51E7F01227F002220
:03000600AF1A220C
:1008E400E51A120571096407092E08095209091C41
:1008F4000C09581509171609221809341C09404215
:10090400095E47094C4A094652093A5A09285E00C9
:1009140000096AE4F51AFF22E4F51A7F0122E4F5DE
:100924001A7F0222E4F51A7F0322E4F51A7F0422D7
:10093400E4F51A7F0522E4F51A7F0622E4F51A7F0E
:100944000722E4F51A7F0822E4F51A7F0922E4F568
:100954001A7F0B22E4F51A7F0C22E4F51A7F0D228C
:0C096400E4F51A7F0E22E4F51A7F0F2242
:030003000205975C
:10059700C0E0C0F0C083C082C0D075D000C000C02A
:1005A70001C002C003C004C005C006C007E517703C
:1005B7000CFFFE120C3C7F01120C788049E5176492
:1005C700017049120C668E188F19E4FFFE120C3C5D
:1005D700D3E51994A6E518942E4010E519948EE5F5
:1005E70018943250067517020206C6D3E519948C83
:1005F700E51894264010E5199474E518942A5006D6
:10060700751C010206BE7517010206C6E5176402CE
:1006170060030206C6120C668E188F19E4FFFE12DD
:100627000C3CD3E5199414E5189402402BE5199472
:10063700FCE51894055021E51D131313541F241FBF
:10064700F8C000E6FFE51D5407FEF87401088002B4
:10065700C333D8FCF45F8033D3E5199426E51894A7
:1006670006402FE519940EE518940A5025E51D1349
:100677001313541F241FF8C000E6FFE51D5407FE9F
:10068700F87401088002C333D8FC4FD000F6051D6B
:100697008006751D00751701E51DC3942040207560
:1006A7001D00E520F4B51F0FE522F4B52109851FCC
:1006B7001B85211A751E01E4FF120C78751700D0EF
:1006C70007D006D005D004D003D002D001D000D087
:0A06D700D0D082D083D0F0D0E03202
:0300000002097082
:0C097000787FE4F6D8FD75812B0209B7F2
:10043F00BB010689828A83E0225002E722BBFE02BB
:09044F00E32289828A83E49322EE
:10045800BB010CE58229F582E5833AF583E0225059
:1004680006E92582F8E622BBFE06E92582F8E222A3
:0D047800E58229F582E5833AF583E49322BD
:10048500F8BB010DE58229F582E5833AF583E8F0AD
:10049500225006E92582C8F622BBFE05E92582C859
:0204A500F22241
:1004A700EF8DF0A4A8F0CF8CF0A428CE8DF0A42E69
:0204B700FE2223
:1004B900BC000BBE0029EF8DF084FFADF022E4CC27
:1004C900F875F008EF2FFFEE33FEEC33FCEE9DECF0
:1004D900984005FCEE9DFE0FD5F0E9E4CEFD22ED36
:1004E900F8F5F0EE8420D21CFEADF075F008EF2F80
:1004F900FFED33FD4007985006D5F0F222C398FD71
:050509000FD5F0EA220D
:10050E00C2D5EC30E709B2D5E4C39DFDE49CFCEE08
:10051E0030E715B2D5E4C39FFFE49EFE1204B9C3C3
:10052E00E49DFDE49CFC80031204B930D507C3E4BE
:06053E009FFFE49EFE2277
:10054400F8BB0111E58229F582E5833AF583E8F0E9
:10055400E5F0A3F0225009E92582C8F608A6F022A6
:0D056400BBFE09E92582C8F2E5F008F2228D
:10057100D083D082F8E4937012740193700DA3A319
:1005810093F8740193F5828883E47374029368602D
:06059100EFA3A3A380DF2D
:10097C0002000EE493A3F8E493A34003F68001F283
:10098C0008DFF48029E493A3F85407240CC8C3337C
:10099C00C4540F4420C8834004F456800146F6DF4B
:1009AC00E4800B0102040810204080900BC1E47E0F
:1009BC00019360BCA3FF543F30E509541FFEE49340
:1009CC00A360010ECF54C025E060A840B8E493A307
:1009DC00FAE493A3F8E493A3C8C582C8CAC583CA32
:1009EC00F0A3C8C582C8CAC583CADFE9DEE780BEEA
:010BD700001D
:00000001FF
