:100D7800010C0006130001000D0100060D06070016
:0B0D880010020002080000020A000038
:100CB2001201AFFFF87401088002C333D8FCF4526A
:100CC200A09000011201C8FFF87401088002C3332A
:100CD200D8FCF452A090000474031201F5900002B3
:070CE200E475F0030202B407
:060C76007B007A007913F7
:100C7C001201AFFFF87401088002C333D8FCF452A0
:100C8C00A09000011201C8FFF87401088002C33360
:100C9C00D8FC42A090000474011201F5900002E40B
:060CAC0075F00D0202B418
:100CE9001201AFFFF87401088002C333D8FC42A097
:100CF9009000011201C8FFF87401088002C333D8BB
:100D0900FCF452A090000474021201F5900002E470
:060D190075F0100202B4A7
:100D1F009000041201C8B402149000011201C8FF20
:100D2F00F87401088002C333D8FC62A0221201AF0D
:0E0D3F00FFF87401088002C333D8FC62A022C2
:100D9D00120C767A00790D120CE9120E3C120ED758
:0E0DAD00C2A5C290120E847FE87E03020DF2F2
:10031500E4F51A751B0F751C0FF51DF521F520F574
:100325001FF51E120D9DE51860067D9A7C0280045E
:10033500AD16AC157F011209C4E51260067D9A7CE5
:10034500028004AD10AC0F7F021209C4E517B40199
:100355000ED3E5169406E51594005003120EBEE57E
:1003650011B4010ED3E5109406E50F940050031265
:100375000EBE120C158F1AE51AB401167403251654
:10038500F516E43515F51574032510F510E4350F4C
:10039500F50F120E918F218E208D1F8C1EE4FFFE0E
:1003A5007DE07C41AB21AA20A91FA81E1200AE60EA
:1003B500064004D2908002C290E51A6402600302EE
:1003C50004CAE517640370030204CA750C01E4F559
:1003D50015F5167D9A7C027F021209C4E4F51DE528
:1003E5001DC39403400302048DAD16AC157F0112A5
:1003F50009C412089B8F1BE51BC3940F50EBE51D29
:10040500C394025034E51B940A502EAE15AF167CEA
:10041500007D0A1202178E158F16E51B75F00A84EA
:10042500E5F02516F516E43515F515FEAF167D64D0
:100435001202298C158D16051DE51BB40B16051624
:10044500E51670020515AE15FF7C007D64120229C4
:100455008C158D16E51BB40C17E5161516700215CF
:1004650015AE15AF167C007D641202298C158D160C
:10047500E51B640E6012E51BB40D07E4F515F516D2
:10048500F51D751B0F0203E4E517B4011075110284
:10049500E5162403F510E43515F50F8025D3E5168B
:1004A5009403E5159400500B75110385150F8516FA
:1004B50010800F751101E51624FDF510E51534FFC3
:1004C500F50FE4F50C120E77EF700302032B120003
:1004D50006EF6446600302032B750C01F515F5164E
:1004E5007D9A7C027F021209C4E4F51DE51DC394C3
:1004F5000340030205A5AD16AC157F011209C41210
:100505000A898F1CE51CC3940F50EBE51DC39402AB
:10051500502FE51CC3940A5028AE15AF167C007DFC
:100525000A1202178E158F16E51C2516F516E435E9
:1005350015F515FEAF167D641202298C158D16056D
:100545001DE51CB40B160516E51670020515AE154E
:10055500FF7C007D641202298C158D16E51CB40CF8
:1005650017E516151670021515AE15AF167C007D2C
:10057500641202298C158D16E51CB40E11AE15AF4B
:10058500167C007D641202298C158D168012E51CDF
:10059500B40D07E4F515F516F51D751C0F0204F1EC
:1005A500E517B40110751102E5162403F510E435BD
:1005B50015F50F8025D3E5169403E5159400500B2A
:1005C50075110385150F851610800F751101E51638
:1005D50024FDF510E51534FFF50FE4F50C02032BAA
:03000B000205E506
:1005E500C0E0C0F0C083C082C0D075D000C000C0DC
:0D05F50001C002C003C004C005C006C0075D
:10060200758A33758CFE753601050BE50B70020594
:100612000AC394DCE50A94054011750A00750B00C3
:10062200120D4D8F358E348D338C32E50C60097589
:1006320008007509000207360509E5097002050878
:1006420064E87004E5086403600CE50964D0700492
:10065200E5086407705CD3E5169403E51594005031
:1006620023E5176403601DE51870047F0180027F93
:10067200008F18E51645157002F5187B007A00798F
:1006820013120D1FD3E5109403E50F94005023E5D8
:10069200116403601DE51270047F0180027F008FE8
:1006A20012E510450F7002F5127B007A00790D12E7
:1006B2000D1FE50964D07004E50864077076F5083B
:1006C200F509E516151670021515E51015107002DC
:1006D200150FE51645157028E517B4010B7B007A56
:1006E200007913120CB28018E517B4030B7B007A61
:1006F200007913120CE98008E517B40203120C7694
:10070200E510450F702EE511B4010B7B007A0079DC
:100712000D120CB2801EE511B4030B7B007A007936
:100722000D120CE9800EE511B402097B007A007902
:040732000D120C7C1C
:10073600D007D006D005D004D003D002D001D00017
:0B074600D0D0D082D083D0F0D0E032C1
:040DF200EF4E60144C
:100DF600007524027525C7D525FDD524FAEF1F7089
:020E0600EB1EE1
:030E080080E8225D
:0B0E9D003F065B4F666D7D077F6F0016
:100BA100EF14B408005054900BB675F003A4C5833C
:100BB10025F0C58373020BCE020BD2020BD6020BBA
:100BC100DA020BDE020BE6020BEE020BF6D2A48078
:100BD1000ED2A48012D2A48016D2A4801AC2A4D2AA
:100BE100A3D2A28016C2A4D2A3C2A2800EC2A4C262
:100BF100A3D2A28006C2A4C2A3C2A2749D2DF58273
:100C0100740E3CF583E493F5807F017E00120DF2B2
:040C1100E4F5802264
:1009C4008C228D23EF64017050E523B49A07E5224D
:1009D400B40202804EAE22AF237C007D6412027EFC
:1009E400AC06AD077F01120BA1AE22AF237C007DC4
:1009F4006412027E8C228D23AE22AF237C007D0AFA
:100A040012027EAC06AD077F02120BA1AE22AF2309
:100A14007C007D0A12027E8020E523B49A1FE52221
:100A2400B4021A7D0A7C007F01120BA17D0A7C00AE
:100A34007F02120BA17D0A7C007F038044AE22AFAB
:100A4400237C007D6412027EAC06AD077F05120B89
:100A5400A1AE22AF237C007D6412027E8C228D2302
:100A6400AE22AF237C007D0A12027EAC06AD077F66
:100A740006120BA1AE22AF237C007D0A12027E7FF8
:050A840007120BA12286
:100E3C005389F0438901758A33758CFEC28DD28C2F
:050E4C00D2A9D2AF2283
:100E510053890F438910E4F58BF58DC28FC28ED271
:040E6100ABD2AF223F
:0B0EA800AD07AC068C8DAF058F8B22D0
:090EC800AF8DEFFEAD8BEDFF22B2
:060ED100EF24FF928E22C7
:100C1500E4F52220B1137F14FE120DF230B1FD7FF1
:100C2500147E00120DF275220120B0147F147E008F
:100C3500120DF230B0FD7F147E00120DF275220206
:100C450020B2147F147E00120DF230B2FD7F147EA7
:100C550000120DF275220320B3147F147E00120DCD
:100C6500F230B3FD7F147E00120DF2752204AF221F
:010C7500225C
:030D930001360026
:0A0EBE00E5366005B2A5E4F5362222
:10089B0075220F7590FEC2932097147F147E001261
:1008AB000DF23097FD7F147E00120DF275220120A0
:1008BB0096147F147E00120DF23096FD7F147E008D
:1008CB00120DF27522042095147F147E00120DF286
:1008DB003095FD7F147E00120DF2752207209414C3
:1008EB007F147E00120DF23094FD7F147E00120DEA
:1008FB00F275220A7590FEC2922097147F147E0027
:10090B00120DF23097FD7F147E00120DF27522024C
:10091B002096147F147E00120DF23096FD7F147E0C
:10092B0000120DF27522052095147F147E00120D16
:10093B00F23095FD7F147E00120DF2752208209483
:10094B00147F147E00120DF23094FD7F147E001282
:10095B000DF275220D7590FEC2912097147F147EB7
:10096B0000120DF23097FD7F147E00120DF27522EE
:10097B00032096147F147E00120DF23096FD7F1427
:10098B007E00120DF27522062095147F147E001244
:10099B000DF23095FD7F147E00120DF275220920A9
:1009AB0094147F147E00120DF23094FD7F147E00A0
:0809BB00120DF275220EAF22AD
:0109C3002211
:0B0EB300D288C289D2A8D2AFD2B822E8
:060ED700120E51020EB3E1
:0D0E7700E52D6006E4F52D7F01227F0022AD
:03000600AF2922FD
:100A8900E5291202EF0B09070AD3080AF7090AC177
:100A99000C0AFD150ABC160AC7180AD91C0AE54230
:100AA9000B03470AF14A0AEB520ADF5A0ACD5E00E4
:100AB900000B0FE4F529FF22E4F5297F0122E4F573
:100AC900297F0222E4F5297F0322E4F5297F042204
:100AD900E4F5297F0522E4F5297F0622E4F5297F3B
:100AE9000722E4F5297F0822E4F5297F0922E4F5A4
:100AF900297F0B22E4F5297F0C22E4F5297F0D22B9
:0C0B0900E4F5297F0E22E4F5297F0F227D
:03000300020751A0
:10075100C0E0C0F0C083C082C0D075D000C000C06E
:1007610001C002C003C004C005C006C007E5267071
:100771000CFFFE120EA87F01120ED18049E52664FE
:10078100017049120EC88E278F28E4FFFE120EA8B1
:10079100D3E52894A6E527942E4010E528948EE50C
:1007A1002794325006752602020880D3E528948CDE
:1007B100E52794264010E5289474E527942A5006ED
:1007C100752B01020878752601020880E52664026E
:1007D1006003020880120EC88E278F28E4FFFE12E4
:1007E1000EA8D3E5289414E5279402402BE528941C
:1007F100FCE52794055021E52C131313541F242ED7
:10080100F8C000E6FFE52C5407FEF87401088002E9
:10081100C333D8FCF45F8033D3E5289426E52794CD
:1008210006402FE528940EE527940A5025E52C1360
:100831001313541F242EF8C000E6FFE52C5407FEC5
:10084100F87401088002C333D8FC4FD000F6052CA0
:100851008006752C00752601E52CC3942040207577
:100861002C00E52FF4B52E0FE531F4B53009852EB6
:100871002A853029752D01E4FF120ED1752600D08D
:1008810007D006D005D004D003D002D001D000D0CB
:0A089100D0D082D083D0F0D0E03246
:060D960004320000000021
:0D0E8400120DD87FCC120E0B7F44020E0B16
:100D4D00120DD87FCC120E0B7FBE120E0B120DBBE7
:100D5D008F19120DBBEFFEE519FFFDAC06EC12016C
:0B0D6D002CE4FBFA79807841020011B1
:0C0E9100120E84AF35AE34AD33AC32220B
:100DD800D2B7C2B77FF7DFFED2B77F20DFFEA2B758
:090DE800E433FE7FF7DFFEAF06E5
:010DF10022DF
:100E6500C2B77E04DEFEEF24FF92B77E18DEFED207
:010E7500B7C5
:010E76002259
:100E2400C2B77F02DFFED2B77F02DFFEA2B7E43390
:070E3400FE7F18DFFEAF0690
:010E3B002294
:020E0B00AD0731
:100E0D00E4FCA8047401088002C333D8FC5DFF1212
:060E1D000E650CBC08ECA0
:010E230022AC
:100DBB00E4FDFC120E24EF600DA804740108800200
:0C0DCB00C333D8FC42050CBC08E9AF059E
:010DD70022F9
:10000E000201A4EC5D046005E85904700302019A34
:10001E00120165580460F6EC4860F2EC7004FDFEC7
:10002E00FF22C860DB2481C85009C39860025006C5
:10003E000201A19850CAF582E9294B4A7005AB829C
:10004E0002019075F0007C1A7880C3EF9BEE9AED5A
:10005E0099400DC3EF9BFFEE9AFEED99FDE842F03D
:10006E00DC23ACF0D0E0FFD0E0FED0E0FDAB822090
:10007E00E7101BEB60BAEC2CFCEF33FFEE33FEED1A
:10008E0033FD02017CE803F830E705C0F075F0009F
:10009E00EF2FFFEE33FEED33FD40B830E7C280AAFE
:1000AE0074F8CC6480CCC86480C8F58204604FC3F9
:1000BE00EB9FF5F0EA9E42F0E99D42F0E89C45F098
:1000CE00603C501DE5825FFFE582D313CB5BCBF422
:1000DE002B5582FB50280ABA002409B9002008804B
:1000EE001DE5825BFBE582D313CF5FCFF4C3132FE5
:1000FE005582FF50090EBE00050DBD00010CC3EB6D
:10010E009FF5F0EA9E42F0E99D42F0E89C45F060D2
:09011E0007CC4820E701B3EC22F4
:1001270075F020800E75F010800575F0087D007E53
:10013700007F003392D530D5031202E1EC33401033
:10014700EF33FFEE33FEED33FDEC33FCD5F0ED225C
:0E015700E5F0247EA2D513CC92E7CDCEFF2298
:10016500E9D2E7C933E833F892D5EDD2E7CD33ECE0
:0701750033FC5002B2D52259
:10017C00EC30E7100FBF000C0EBE00080DBD0004E4
:10018C000BEB6014A2D5EB13FCED92E7FD2274FF90
:10019C00FCFDFEFF22E480F8A2D574FF13FC7D80E9
:0301AC00E480EFFD
:03000000020B15DB
:0C0B1500787FE4F6D8FD758136020B5C99
:1001AF00BB010689828A83E0225002E722BBFE024E
:0901BF00E32289828A83E4932281
:1001C800BB010CE58229F582E5833AF583E02250EC
:1001D80006E92582F8E622BBFE06E92582F8E22236
:0D01E800E58229F582E5833AF583E4932250
:1001F500F8BB010DE58229F582E5833AF583E8F040
:10020500225006E92582C8F622BBFE05E92582C8EB
:02021500F222D3
:10021700EF8DF0A4A8F0CF8CF0A428CE8DF0A42EFB
:02022700FE22B5
:10022900BC000BBE0029EF8DF084FFADF022E4CCB9
:10023900F875F008EF2FFFEE33FEEC33FCEE9DEC82
:10024900984005FCEE9DFE0FD5F0E9E4CEFD22EDC8
:10025900F8F5F0EE8420D21CFEADF075F008EF2F12
:10026900FFED33FD4007985006D5F0F222C398FD03
:050279000FD5F0EA22A0
:10027E00C2D5EC30E709B2D5E4C39DFDE49CFCEE9B
:10028E0030E715B2D5E4C39FFFE49EFE120229C3E8
:10029E00E49DFDE49CFC800312022930D507C3E4E3
:0602AE009FFFE49EFE220A
:1002B400F8BB0111E58229F582E5833AF583E8F07C
:1002C400E5F0A3F0225009E92582C8F608A6F02239
:0D02D400BBFE09E92582C8F2E5F008F22220
:0E02E100C3E49FFFE49EFEE49DFDE49CFC222E
:1002EF00D083D082F8E4937012740193700DA3A39E
:1002FF0093F8740193F5828883E4737402936860B2
:06030F00EFA3A3A380DFB1
:100B2100020315E493A3F8E493A34003F68001F2D2
:100B310008DFF48029E493A3F85407240CC8C333D5
:100B4100C4540F4420C8834004F456800146F6DFA4
:100B5100E4800B0102040810204080900D78E47EAF
:100B6100019360BCA3FF543F30E509541FFEE49399
:100B7100A360010ECF54C025E060A840B8E493A360
:100B8100FAE493A3F8E493A3C8C582C8CAC583CA8B
:100B9100F0A3C8C582C8CAC583CADFE9DEE780BE43
:010D9C000056
:00000001FF
