:100BC500010A0006110001000D0100060B060700D1
:030BD5001002000B
:100B1100120452FFF87401088002C333D8FCF45266
:100B2100A090000112046BFFF87401088002C33326
:100B3100D8FCF452A09000047403120498900002AF
:070B4100E475F00302055703
:060AD5007B007A0079119C
:100ADB00120452FFF87401088002C333D8FCF4529D
:100AEB00A090000112046BFFF87401088002C3335D
:100AFB00D8FC42A09000047401120498900002E408
:060B0B0075F00D02055714
:100B4800120452FFF87401088002C333D8FC42A093
:100B580090000112046BFFF87401088002C333D8B7
:100B6800FCF452A09000047402120498900002E46D
:060B780075F010020557A4
:100B7E0090000412046BB4021490000112046BFF77
:100B8E00F87401088002C333D8FC62A0221204520A
:0E0B9E00FFF87401088002C333D8FC62A02265
:0A0C4C00120AD57A00790B020B485A
:10001E00E4F52375240F75250FF526120BDC120B54
:10002E00F1120C79120C4CE51660067D9A7C02805A
:10003E0004AD14AC137F01120823E51060067D9AFF
:10004E007C028004AD0EAC0D7F02120823E515B4C0
:10005E00010ED3E5149403E51394005003120C56CD
:10006E00E50FB4010ED3E50E9403E50D9400500395
:10007E00120C56120A748F23E523B401167403254D
:10008E0014F514E43513F5137403250EF50EE4354B
:10009E000DF50DE523640260030201ADE515640361
:1000AE0070030201AD750A01E4F513F5147D9A7C17
:1000BE00027F02120823E4F526E526C394034003CB
:1000CE00020170AD14AC137F011208231202C88F07
:1000DE0024E524C3940F50EBE526C394025034E577
:1000EE0024940A502EAE13AF147C007D0A1204BA6B
:1000FE008E138F14E52475F00A84E5F02514F5149B
:10010E00E43513F513FEAF147D641204CC8C138DFD
:10011E00140526E524B40B160514E5147002051318
:10012E00AE13FF7C007D641204CC8C138D14E52479
:10013E00B40C17E514151470021513AE13AF147C1E
:10014E00007D641204CC8C138D14E524640E6012B1
:10015E00E524B40D07E4F513F514F52675240F0206
:10016E0000C7E515B40110750F02E5142403F50E52
:10017E00E43513F50D8025D3E5149403E5139400AF
:10018E00500B750F0385130D85140E800F750F011F
:10019E00E51424FDF50EE51334FFF50DE4F50A1212
:1001AE00000EEF7003020035120C7FEF6446600301
:1001BE00020035750A01F513F5147D9A7C027F0253
:1001CE00120823E4F526E526C394034003020288B1
:1001DE00AD14AC137F011208231208E88F25E52514
:1001EE00C3940F50EBE526C39402502FE525C3941C
:1001FE000A5028AE13AF147C007D0A1204BA8E1377
:10020E008F14E5252514F514E43513F513FEAF14FC
:10021E007D641204CC8C138D140526E525B40B16C3
:10022E000514E51470020513AE13FF7C007D6412F5
:10023E0004CC8C138D14E525B40C17E5141514702D
:10024E00021513AE13AF147C007D641204CC8C1314
:10025E008D14E525B40E11AE13AF147C007D64121F
:10026E0004CC8C138D148012E525B40D07E4F51320
:10027E00F514F52675250F0201D4E515B401107598
:10028E000F02E5142403F50EE43513F50D8025D386
:10029E00E5149403E5139400500B750F0385130DAD
:1002AE0085140E800F750F01E51424FDF50EE51370
:0A02BE0034FFF50DE4F50A020035E7
:03000B000206F4F6
:1006F400C0E0C0F0C083C082C0D075D000C000C0CC
:0707040001C002C003C007A1
:10070B00758A00758C4CE50A60097508007509003F
:10071B0002080E0509E50970020508640A45086020
:10072B0008E50964144508705CD3E5149403E513DC
:10073B0094005023E5156403601DE51670047F01DA
:10074B0080027F008F16E51445137002F5167B00AF
:10075B007A007911120B7ED3E50E9403E50D94000C
:10076B005023E50F6403601DE51070047F018002C8
:10077B007F008F10E50E450D7002F5107B007A009F
:10078B00790B120B7EE509641445087076F508F5B4
:10079B0009E514151470021513E50E150E700215EC
:1007AB000DE51445137028E515B4010B7B007A0099
:1007BB007911120B118018E515B4030B7B007A002D
:1007CB007911120B488008E515B40203120AD5E51E
:1007DB000E450D702EE50FB4010B7B007A00790BE3
:1007EB00120B11801EE50FB4030B7B007A00790B03
:1007FB00120B48800EE50FB402097B007A00790BCF
:03080B00120ADBF3
:10080E00D007D003D002D001D000D0D0D082D08378
:05081E00D0F0D0E03233
:040BAC00EF4E601494
:100BB00000752902752AC7D52AFDD529FAEF1F70BD
:020BC000EB1E2A
:030BC20080E822A6
:0B0C36003F065B4F666D7D077F6F007F
:100A0000EF14B408005054900A1575F003A4C58380
:100A100025F0C58373020A2D020A31020A35020A43
:100A200039020A3D020A45020A4D020A55D2A48043
:100A30000ED2A48012D2A48016D2A4801AC2A4D24C
:100A4000A3D2A28016C2A4D2A3C2A2800EC2A4C204
:100A5000A3D2A28006C2A4C2A3C2A274362DF5827C
:100A6000740C3CF583E493F5807F017E00120BAC9F
:040A7000E4F5802207
:100823008C278D28EF64017050E528B49A07E527DB
:10083300B40202804EAE27AF287C007D64120521EE
:10084300AC06AD077F01120A00AE27AF287C007DFE
:10085300641205218C278D28AE27AF287C007D0AE2
:10086300120521AC06AD077F02120A00AE27AF289E
:100873007C007D0A1205218020E528B49A1FE52714
:10088300B4021A7D0A7C007F01120A007D0A7C00F3
:100893007F02120A007D0A7C007F038044AE27AFEB
:1008A300287C007D64120521AC06AD077F05120A82
:1008B30000AE27AF287C007D641205218C278D288C
:1008C300AE27AF287C007D0A120521AC06AD077F59
:1008D30006120A00AE27AF287C007D0A1205217F8D
:0508E30007120A0022CB
:100BDC005389F0438901E4F58A758C4CC28DD28C13
:050BEC00D2A9D2AF22E6
:100BF10053890F438910758B66758DEAC28FD28E2A
:050C0100D2ABD2AF22CE
:100C1900E4F5C8F5CCF5CDF5CAF5CBC2CAC2CF22E9
:100C0600AD07AC06AF048FCDAB05AE038ECC8FCB54
:030C16008ECA2261
:090C6A00AFCDEFFEADCCEDFF2291
:060C7300EF24FF92CA22EB
:100A7400E4F52720B1137F14FE120BAC30B1FD7FD7
:100A8400147E00120BAC75270120B0147F147E0075
:100A9400120BAC30B0FD7F147E00120BAC75270234
:100AA40020B2147F147E00120BAC30B2FD7F147E92
:100AB40000120BAC75270320B3147F147E00120BB5
:100AC400AC30B3FD7F147E00120BAC752704AF2746
:010AD40022FF
:030BD800012B00EE
:0A0C5600E52B6005B2A5E4F52B22A2
:03001B00020C6074
:0A0C6000758B66758DEA752B013265
:1002C80075270F7590FFC2932097147F147E001234
:1002D8000BAC3097FD7F147E00120BAC7527012004
:1002E80096147F147E00120BAC3096FD7F147E00AE
:1002F800120BAC7527052095147F147E00120BACE9
:100308003095FD7F147E00120BAC752709209414DC
:100318007F147E00120BAC3094FD7F147E00120B0C
:10032800AC75270D7590FFC2922097147F147E003C
:10033800120BAC3097FD7F147E00120BAC752702B0
:100348002096147F147E00120BAC3096FD7F147E2D
:1003580000120BAC7527062095147F147E00120B33
:10036800AC3095FD7F147E00120BAC75270A2094E3
:10037800147F147E00120BAC3094FD7F147E0012A3
:100388000BAC75270E7590FFC2912097147F147ED1
:1003980000120BAC3097FD7F147E00120BAC752752
:1003A800032096147F147E00120BAC3096FD7F1448
:1003B8007E00120BAC7527072095147F147E00125F
:1003C8000BAC3095FD7F147E00120BAC75270B200B
:1003D80094147F147E00120BAC3094FD7F147E00C1
:1003E800120BAC75270F7590FFC2902097147F14DD
:1003F8007E00120BAC3097FD7F147E00120BAC759B
:1004080027042096147F147E00120BAC3096FD7FD3
:10041800147E00120BAC7527082095147F147E00FB
:10042800120BAC3095FD7F147E00120BAC75270CB7
:100438002094147F147E00120BAC3094FD7F147E40
:0904480000120BAC752710AF2760
:010451002288
:0B0C4100D288C289D2A8D2AFD2B8225C
:060C7900120C19020C41EF
:0D000E00E51E6006E4F51E7F01227F002242
:0D0C2900E51C6006E4F51C7F01227F00221F
:03000600AF1B220B
:030C7F00AF1A2287
:1008E800E51A12058409680709320809560909201A
:1008F8000C095C15091B1609261809381C094442FD
:1009080009624709504A094A52093E5A092C5E00B1
:1009180000096EE4F51AFF22E4F51A7F0122E4F5D6
:100928001A7F0222E4F51A7F0322E4F51A7F0422D3
:10093800E4F51A7F0522E4F51A7F0622E4F51A7F0A
:100948000722E4F51A7F0822E4F51A7F0922E4F564
:100958001A7F0B22E4F51A7F0C22E4F51A7F0D2288
:0C096800E4F51A7F0E22E4F51A7F0F223E
:030003000205AA49
:1005AA00C0E0C0F0C083C082C0D075D000C000C017
:1005BA0001C002C003C004C005C006C007E5177029
:1005CA000CFFFE120C067F01120C738049E51764BA
:1005DA00017049120C6A8E188F19E4FFFE120C067C
:1005EA00D3E51994A6E518942E4010E519948EE5E2
:1005FA0018943250067517020206D9D3E519948C5D
:10060A00E51894264010E5199474E518942A5006C2
:10061A00751C010206D17517010206D9E517640295
:10062A0060030206D9120C6A8E188F19E4FFFE12B3
:10063A000C06D3E5199414E5189402402BE5199495
:10064A00FCE51894055021E51D131313541F241FAC
:10065A00F8C000E6FFE51D5407FEF87401088002A1
:10066A00C333D8FCF45F8033D3E5199426E5189494
:10067A0006402FE519940EE518940A5025E51D1336
:10068A001313541F241FF8C000E6FFE51D5407FE8C
:10069A00F87401088002C333D8FC4FD000F6051D58
:1006AA008006751D00751701E51DC394204020754D
:1006BA001D00E520F4B51F0FE522F4B52109851FB9
:1006CA001B85211A751E01E4FF120C73751700D0E1
:1006DA0007D006D005D004D003D002D001D000D074
:0A06EA00D0D082D083D0F0D0E032EF
:030000000209747E
:0C097400787FE4F6D8FD75812B0209BBEA
:10045200BB010689828A83E0225002E722BBFE02A8
:09046200E32289828A83E49322DB
:10046B00BB010CE58229F582E5833AF583E0225046
:10047B0006E92582F8E622BBFE06E92582F8E22290
:0D048B00E58229F582E5833AF583E49322AA
:10049800F8BB010DE58229F582E5833AF583E8F09A
:1004A800225006E92582C8F622BBFE05E92582C846
:0204B800F2222E
:1004BA00EF8DF0A4A8F0CF8CF0A428CE8DF0A42E56
:0204CA00FE2210
:1004CC00BC000BBE0029EF8DF084FFADF022E4CC14
:1004DC00F875F008EF2FFFEE33FEEC33FCEE9DECDD
:1004EC00984005FCEE9DFE0FD5F0E9E4CEFD22ED23
:1004FC00F8F5F0EE8420D21CFEADF075F008EF2F6D
:10050C00FFED33FD4007985006D5F0F222C398FD5D
:05051C000FD5F0EA22FA
:10052100C2D5EC30E709B2D5E4C39DFDE49CFCEEF5
:1005310030E715B2D5E4C39FFFE49EFE1204CCC39D
:10054100E49DFDE49CFC80031204CC30D507C3E498
:060551009FFFE49EFE2264
:10055700F8BB0111E58229F582E5833AF583E8F0D6
:10056700E5F0A3F0225009E92582C8F608A6F02293
:0D057700BBFE09E92582C8F2E5F008F2227A
:10058400D083D082F8E4937012740193700DA3A306
:1005940093F8740193F5828883E47374029368601A
:0605A400EFA3A3A380DF1A
:1009800002001EE493A3F8E493A34003F68001F26F
:1009900008DFF48029E493A3F85407240CC8C33378
:1009A000C4540F4420C8834004F456800146F6DF47
:1009B000E4800B0102040810204080900BC5E47E07
:1009C000019360BCA3FF543F30E509541FFEE4933C
:1009D000A360010ECF54C025E060A840B8E493A303
:1009E000FAE493A3F8E493A3C8C582C8CAC583CA2E
:1009F000F0A3C8C582C8CAC583CADFE9DEE780BEE6
:010BDB000019
:00000001FF
